:020000040000FA
:10000000481C0020ED9000000791000009910000BD
:1000100000000000000000000000000000000000E0
:100020000000000000000000000000000B91000034
:100030000000000000000000C38900000F910000D4
:10004000119100001191000011910000A78C000097
:1000500011910000000000000983000011910000D0
:100060001191000011910000119100001191000008
:1000700011910000119100001191000011910000F8
:10008000119100000B23000011910000119100005C
:1000900021230000B9830000A12B00001191000072
:1000A000119100001191000000000000000000000C
:1000B0000000000000000000000000000000000040
:1000C0000348854609F0D2F8004800474F08000071
:1000D000481C0020401E00BF00BF00BF00BF00BF83
:1000E00000BF00BF00BF00BF00BF00BF00BFF1D115
:1000F00070470000401E00BF00BF00BF00BF00BF30
:1001000000BF00BF00BF00BF00BF00BF00BFF1D1F4
:10011000704700000F2000F059FCFEE70F2000F0B0
:1001200055FCFEE70F2000F051FCFEE710B5FA4940
:10013000FA4802F073FDC1B2F748183800F087FEA4
:1001400000280BD0082809D0F549884206D0F54987
:10015000884203D00F2000F039FCFEE710BD01B546
:10016000F14890B000680E90EC480A3806F0CAFFDB
:10017000002803D00F2000F029FCFEE7E74900200B
:100180000A3906F0EFFF002803D00F2000F01EFC14
:10019000FEE73821684609F040F8022069460870F9
:1001A00001208870888010A90291694608830EA8F2
:1001B00007900021684601F076FE002803D00F204A
:1001C00000F004FCFEE711B000BDFFB583B00E46A1
:1001D000062A03D90F2000F0F9FBFEE71C4615465E
:1001E00000276846001900972A1B3119801C0197C7
:1001F00008F0FAFF02A9022002F01AFC002803D03E
:100200000F2000F0E3FBFEE76846007A002805D0E7
:10021000694608780221084369460870BF483438A7
:100220000078002807D06A460821039801F071FB86
:1002300000280BD106E06B4608220021039801F04C
:1002400039FBF5E7641CA4B2AC42CAD90C990C8006
:1002500007B0F0BD7CB5044601A800900D46002310
:100260002246B248FFF7B1FFAD49884209D168463E
:100270008388A34204D822462946AC4800F037FCC4
:100280007CBD0028FCD00828FAD0A6498842F7D0C7
:100290000F2000F09BFBFEE73EB5A04A08460C7815
:1002A00000210123343A022C0CD0042C07D0052C59
:1002B00003D0062C00D111703EBD13703EBD00F07E
:1002C00036FC3EBD6C4623700191029111780029E5
:1002D00010D0808896498842F3D190482146203832
:1002E00002F011FF0828ECD00028EAD00F2000F01F
:1002F0006DFBFEE780790128E3D18848214620384C
:1003000002F001FF0828DCD00028DAD00F2000F02E
:100310005DFBFEE770B598B00821684601800024B7
:1003200084700126C670601C0107090F68462031E1
:100330000171601C0107090F684620314171601C82
:100340000107090F684620318171068184720221FC
:10035000C1720120014668462031417301200146E7
:100360006846203181730325482104A808F055FF11
:100370007048049070480590684606764476867604
:10038000079008A8067002A8099008A804724C21DA
:1003900068460B9481866148FF2108300C90023139
:1003A00010A801808470C57084710120014608A8DE
:1003B0002031129401770020014608A841770120DE
:1003C000014610A8203101710020014610A841719A
:1003D0000120014610A82031C1740120014610A857
:1003E000203101750020014610A841750120014609
:1003F00010A8203181750120014610A82031C17557
:100400000120014610A8203101730120014610A8E7
:10041000203141730020014610A88173012001465C
:1004200010A82031C17304A9404801F0ACF900289C
:1004300003D00F2000F0CAFAFEE718B070BD0F20FD
:1004400000F0C4FAFEE7F0B59DB0082000F0C3FA52
:100450000C2000F0C0FA0D2000F0BDFA0E2000F0D4
:10046000BAFA09A807F0F7FE002803D00F2000F021
:10047000ADFAFEE7294C09980127343C002802D048
:10048000A7701DB0F0BD1421684608F0C6FE002517
:1004900068460570019505720395207902260128AA
:1004A00007D11E481AA9203802F0C1FE002800D04A
:1004B00026712079030008F016FF05044905596CE0
:1004C0006300267108206946087608A908700AA802
:1004D000059012A80790114805A92F3802F0CFFD0A
:1004E000002803D00F2000F071FAFEE76846007E76
:1004F000002803D108A8007800281FD0684606729B
:1005000005A803900420FFF72AFE032020710D2088
:1005100000F05CFA14E00000C80400203400002061
:100520000430000001340000009400003803002073
:10053000222A0000990200002501000004202071F9
:100540002820694608821E20488219E01AA80190D6
:10055000684607704582A079401E0006000EA07113
:1005600000D126710C2000F031FA09E00520FFF7D8
:10057000F6FD2820694608821E204882042020714A
:10058000684606F073FB002810D00F2000F01EFA1A
:10059000FEE70520FFF7E3FD1921C9016846018246
:1005A000B4214182052020710E20DCE7082000F0F4
:1005B0000DFA66E77CB5FB4C0146A27F0020002ABD
:1005C00019D0227F0C2326465A43203E9519002934
:1005D00013D001A800902B786A786968A868FFF7A3
:1005E000F4FDF149884208D169466A7889888A42CF
:1005F00003D329707CBD05207CBD227F0C235A4388
:10060000002192195160227F521CD3B22377A27F1E
:10061000521EA277052BEFD121777CBD70B506461F
:1006200000880025E14C19284CD019DC012840D065
:10063000102823D011283BD10020FFF7BBFF092051
:1006400000F0C9F90A2000F0C6F9681E2081657023
:1006500002F0DEF9002830D00F2000F0B7F9FEE7F5
:10066000392801D0552823D11321208906F06CFCAC
:1006700000281DD00F2000F0A9F9FEE7092000F0A6
:10068000A5F9082000F0A7F90C2000F0A4F90D202E
:1006900000F0A1F90E2000F09EF902F0AEF900285A
:1006A00003D00F2000F092F9FEE7B0882081257179
:1006B00070BD0120FFF77EFF70BD01202071052075
:1006C000A07105E0B0790028F6D12079052802D084
:1006D000FFF7B9FE70BD2571082000F07CF90C20F1
:1006E00000F079F90D2000F076F90E2000F073F992
:1006F0000320AF4900040860091D086006F072FF7E
:100700000028E7D00F2000F061F9FEE710B504469D
:1007100002F0E4FD2046FFF781FF204603F054F885
:100720002146A44800F01AFE9E482146483800F0B1
:10073000ADFA10BD10B5044607F08CFD022C01D0B7
:10074000032C07D199488178002903D000218170BA
:10075000FFF779FE10BD10B5012918D1002803D08C
:100760000F2000F033F9FEE7904C0120E168FFF71D
:1007700071FDE068401CE060E078401CC0B2E070B1
:10078000062804D120461830E0600020E07010BD3B
:1007900010B5002A03D00F2000F018F9FEE7097801
:1007A000142901D0212905D10146804804221430A2
:1007B00008F01AFD002010BD1FB57C48143002F06F
:1007C00022FB002803D00F2000F000F9FEE707F01D
:1007D00015FB002803D00F2000F0F8F8FEE703A96E
:1007E000012002F025F9002803D00F2000F0EEF8D8
:1007F000FEE703A802F0B2FB002803D00F2000F0B0
:10080000E5F8FEE701A80621023008F006FD1E20EB
:100810006A46D080107A01210843E1221040DF228D
:100820000C3010406A4610720720507210209072EF
:10083000614800905D4811716946401D02F0E5FB7A
:10084000002803D00F2000F0C1F8FEE71FBD584874
:10085000032488B030300460001D0460001D046073
:10086000534820300460001D046051483C3004604F
:100870004F4828300460042201231146002001F073
:10088000A4FE4A484D4A0121103001F0C2FD002863
:1008900003D00F2000F09AF8FEE7464901201439F2
:1008A00007F0F5FD002803D00F2000F08FF8FEE7D9
:1008B0003E48434B434A0321883002F06FF800283A
:1008C00003D00F2000F082F8FEE700F063F9394A08
:1008D0000A21C43A082007F0DBFE002803D00F20CD
:1008E00000F074F8FEE7FFF767FF00F083F80520DB
:1008F000FFF735FC00F0ABF800F0D2F8FFF70AFD87
:100900002848512130380160642141600121816013
:10091000017301462548343002F074F91C21684601
:1009200008F07BFC0520C00301900F200004002587
:100930000290009568460473C581057422480690AC
:100940000595684602F0EDFE002803D00F2000F068
:100950003DF8FEE713481349057745778577002072
:1009600020390C2242435218401C55600528F8D308
:100970000E48012100220904006901F093FD0028BE
:1009800003D00F2000F022F8FEE7FFF75CFD07F030
:10099000D2FE06F0C6FE0028F9D00F2000F016F8AF
:1009A000FEE70000F80400200430000000000020F2
:1009B0000007005038030020910700002D010000BF
:1009C000E1090000660600003F04000001218140AB
:1009D000964881607047012181409448C16070470A
:1009E0001CB50090684601714271914A082107F0D8
:1009F00063FE1CBD0EB569461120087214228DA13C
:100A000002A806F0BAF9002803D00F20FFF7DEFF96
:100A1000FEE78E4806F0E0F9002803D00F20FFF72C
:100A2000D5FFFEE70020009001900620694608806F
:100A300018224A8088801E20C880684606F0F7F990
:100A4000002803D00F20FFF7C1FFFEE70EBD00B561
:100A500093B00221684601707D4941807D498180C3
:100A60000121C180402102A808F0D7FB7AA102A889
:100A700002F008FF684610900120014610A82031BE
:100A800001710020014610A8417102A800F0B3FADC
:100A9000002803D00F20FFF799FFFEE713B000BD39
:100AA00000B585B01421684608F0B7FB002101228B
:100AB0006846009102710291642101731146203150
:100AC0004173114620318173002001466846C1738D
:100AD0001146203101746946644800F09BF90028F2
:100AE00003D00F20FFF772FFFEE705B000BDF0B5A1
:100AF0005E4C06464834A57F0020052D15D0657F45
:100B00000C277D432746203FED19AE6069602B70AE
:100B10006A70A17F491CA177617F491CC9B26177C6
:100B2000052901D100216177F0BD0420F0BD1CB57D
:100B30008179022921D1C17900291ED101A8009013
:100B4000002301224A4800F009FF002803D00F20AB
:100B5000FFF73CFFFEE7474C6078002868460079C5
:100B60000CD0800709D40A20FFF735FF2146243135
:100B70000620FFF76FFB002060701CBD8007FCD5CE
:100B80000A20FFF723FF3B4906201E31FFF762FBD7
:100B90000120F1E708B5384B50223849082001F010
:100BA000D9FF002803D00F20FFF710FFFEE7002039
:100BB000694600900870684606F013F8002803D0D4
:100BC0000F20FFF703FFFEE72D4801F0D9FF0028B3
:100BD00003D00F20FFF7FAFEFEE72A4801F0D8FF06
:100BE000002803D00F20FFF7F1FEFEE708BD10B587
:100BF0000021254A084607F05FFD10BD10B50246EA
:100C0000082903D00F20FFF7E1FEFEE751791079A4
:100C10001268904710BD10B5002903D00F20FFF7D0
:100C2000D5FEFEE701F056FF10BD000000050050A4
:100C3000FD0B00005241595441435F4D4434305F35
:100C40004B6579626F61726400000000C1030000AF
:100C500015190000EEEE00004E6F72646963536573
:100C60006D69636F6E647563746F7200B004002009
:100C70003803002000000020EF0B000024020020B9
:100C80000D07000035070000170C000038B50A8872
:100C9000102A1AD0112A1AD0502A1BD1027D002AFC
:100CA00018D0CA884389891D9A4213D10A8B022A17
:100CB00010D10268002A0DD0CB7E8C7E1902214310
:100CC000C907C90F07D0002106E0898801E000218B
:100CD000C943418238BD01216B461970694690476E
:100CE00038BDF0B50546007D002493B00E460028BF
:100CF0000DD0012001466846103103940173717BC9
:100D00004173817BF92001406846891C81731C2155
:100D100004A808F082FA6946087C02210843694663
:100D200008742A7DEF21002A02D01022104300E02F
:100D300008406A461074059407940894287D00289A
:100D400000D003A8099001270A9410469771594AC8
:100D500082800094B27B0270F27B42708078F9222C
:100D60001040F722801C1040EF2108404108490044
:100D700068468170317B017214210BA808F04DFA8E
:100D800001A80B9068460C908786C486078702A846
:100D90000F90A888AB1D0BAA04A906F0F5FA00284D
:100DA00036D1B068002831D06846877142498180C9
:100DB0000094317C017000200146684641708078C3
:100DC000F9210840F721801C0840EF210840410824
:100DD00049006846817011A8B16802F04DFD0646D1
:100DE00014210BA808F019FA01A80B9068460C9082
:100DF0008686C486068711A80F902A46E8880E3298
:100E00000BA906F0FCFA002802D100E0EC810020DA
:100E100013B0F0BD38B50446086820600020C04318
:100E2000608208792075FF200D46207401216846F4
:100E3000817022490180221D6946012006F03DFA99
:100E4000002803D129462046FFF74BFF38BD33B5B4
:100E500085B004466946227C097E00208A4224D05F
:100E60000125684605822174E08806AB04AA0021AA
:100E700006F033FB002818D1608A1149884216D049
:100E8000207D002813D00020009001900290694638
:100E900003900D82E2880A808D70888004A80290F9
:100EA00006A80390608A06F0D4F907B030BD082088
:100EB000FBE70000192A0000082900000F180000B5
:100EC000FFFF000070B50C00054604D197A2332146
:100ED0000020FFF71FF9002D04D194A23421002037
:100EE000FFF718F9207828702088FF2109020840B0
:100EF000000A6870206809020840000CA870206889
:100F0000000EE87020792871207A68712089000A23
:100F1000A871A068000CE87170BD70B50D000446A2
:100F200004D182A24B210020FFF7F4F8002C04D159
:100F30007EA24C210020FFF7EDF828782070698808
:100F40006170090AA170A988E170090A2171E88815
:100F50006071000AA07170BDFFB58FB01E461546C6
:100F60000F0004D171A26D210020FFF7D3F8002DEE
:100F700004D16EA26E210020FFF7CCF81C21684638
:100F800008F04BF968460178022001436846017079
:100F900000240194039404940594012108A8069464
:100FA000817068460F9901840794317801777178D0
:100FB0004177807FF9210840F721801C0840EF210C
:100FC00008404108490068468177142109A808F0C3
:100FD00024F908A8099007A80A9068468585C48561
:100FE00005865F480D9709AA69460088189B06F098
:100FF000CBF913B0F0BD7FB504460121684681717D
:1010000058498180564A01A9012006F056F9002866
:101010007ED1228825463C35002A09D050482B46EF
:10102000801C009050486168FFF796FF00287BD134
:101030002289002A0AD04A482B460A3000904A48A2
:10104000E168401FFFF788FF00286DD1228A002A3F
:101050000AD043482B461230009043486169001F74
:10106000FFF77AFF00285FD1228B002A0AD03C4884
:101070002B461A3000903C48E169801EFFF76CFF58
:10108000002851D1228C002A0AD035482B46223024
:1010900000903548616AC01EFFF75EFF002843D10B
:1010A000228D002A0AD02E482B462A3000902E4846
:1010B000E16A401EFFF750FF002835D1216B00295F
:1010C0000ED002A8FFF7FEFE25482B4632300090D6
:1010D0002548082202A9801FFFF73EFF002823D1E0
:1010E000606B00280BD01E492B463A3100910279E3
:1010F00001681D48401CFFF72FFF002814D1A16B89
:10110000002910D002A8FFF708FF1548423000E080
:101110000AE0009014482B46072202A92730FFF767
:101120001BFF002800D1002004B070BD2E2E5C2EC5
:101130002E5C2E2E5C2E2E5C2E2E5C536F757263F1
:10114000655C626C655C626C655F73657276696331
:1011500065735C626C655F6469732E6300000000F8
:10116000A00000200A180000292A000010B5138BE7
:1011700086B0022B16D10368002B13D0D37E947E49
:101180001A022243D207D20F01D0022200E003222A
:101190006B461A700B886A4693804988D180026832
:1011A0006946904706B010BD10B5036886B0002BA5
:1011B000F8D004246B461C7014889C805288DA8016
:1011C0008A8B1A81CA8B5A81203103910268694641
:1011D0009047E7E7F8B514460022FE4B857C09E00E
:1011E0000A2656433618B68A8E4201D1012120E0E4
:1011F000521CD2B29542F3D8002278252D5C0AE029
:101200000A26564336184036768F8E4201D1022187
:101210000FE0521CD2B29542F2D80022DE252D5C9E
:1012200015E00A2656433618C036368C8E420CD14D
:101230000321184600F0A0FB00906846008820803B
:101240006846408860800120F8BD521CD2B29542A9
:10125000E7D80020F8BDF0B50446FF300F468D1DDD
:101260004130C988C68D0022012389B0B14215D111
:10127000298B204601290CD10168002909D0A97EBB
:10128000002908D0012904D169460B73026803A91B
:10129000904709B0F0BD69460A73F7E76289914249
:1012A00011D1298B20460129F3D101680029F0D002
:1012B000A97E002905D00129EBD106216A461173C8
:1012C000E4E70521FAE7C34B428A2B3B914206D162
:1012D00000221146184600F04FFB029028E0C28918
:1012E000914206D100221146184600F045FB0290BB
:1012F0002EE0B84B428C1A3B9142E9D0C08B814220
:10130000F0D002A801900022A07C19E00A235343E8
:101310001B191B8B8B4211D10121AE4800F02CFB15
:101320000090694601980988018069464988418092
:101330002A4602A92046FFF719FFAAE7521CD2B29B
:101340009042E3D802AA2046FFF744FF0028A0D02D
:1013500002AA39462046FFF727FF9AE730B505462F
:101360000A88FF30413087B0102A22D0112A33D0AA
:10137000502A35D0512A1AD10C46891D08780128E7
:1013800015D149886A462846FFF724FF00280ED069
:101390002968284600290AD0072269460A710A8866
:1013A0000A814A884A810594026801A9904707B0DA
:1013B00030BD8988C1860120694608800871688926
:1013C00001AB6A46002106F088F80028EFD0696872
:1013D0000029ECD08847EAE70021C943C186E6E747
:1013E0002846FFF738FFE2E7FFB591B00878002400
:1013F000C0061C9E1A9D0F4600280DDA01200146EA
:1014000008A8103108940170297841708178F9207A
:10141000014008A8891C81701C21684607F0FDFE68
:101420003878694608700194039404943878C006AB
:1014300001D508A800E000200590012208A9069423
:101440008A71644869468884079468780877A87820
:101450004877887FF9273840F721801C08401B997E
:10146000C9000843EF2108401043694688771421DA
:101470000AA807F0D2FE09A80A9007A869460B90AF
:101480000C864C861398888611980E9400893346F2
:101490000AAA05F079FF00282DD1012008A988713A
:1014A0004D4869468884079468780877A878487713
:1014B000887FF7213840801C0840EF210840400811
:1014C00040006946887714210AA807F0A6FE09A8FB
:1014D0000A9007A80B900FA8149902F0CDF969465D
:1014E00008864C8688860FA80E90324630880832CF
:1014F0000AA905F084FF15B0F0BDF0B597B00C4611
:1015000006461C21684607F088FE694608780221D5
:1015100008436946087000250195039504950595D3
:10152000012208A906952B488A70801E6946088406
:10153000274620370795387B08772D20005D4877B0
:10154000887FF9210840F721801C0840EF210840DE
:1015500010436946887714210AA807F05EFE08A8A0
:101560000A9007A80B90A08C694608864D86A08C2F
:101570008886206A33460E90FF33308945330AAAA5
:1015800005F002FF002808D1B879002802D0A06A2F
:10159000002801D000254CE0072017B0F0BD012144
:1015A00008A881700C496846491E018400200790F4
:1015B000401C0107090F68462031017700200146D1
:1015C00068464177807FF9210840F721801C084058
:1015D000EF2103E04D2A00000829000008404108DF
:1015E000490068468177A06AA900401812AA09A993
:1015F00005F0C7FA0028D0D114210AA807F00DFE83
:1016000008A80A9007A808AA0B9010796A461086C5
:1016100000215186908612A80E90FF203246453058
:10162000FF32805B4D320AA905F0E9FE0028B4D1F3
:101630006D1CB879A842B2DC0020AEE7FFB50024EB
:10164000601C91B000070F46000F694610300294ED
:10165000087218784872887AF9263040801C88729F
:101660001D461C2103A807F0D8FD6946087B02210E
:10167000084369460873A9780A07F721002A02D0AF
:101680000822104300E00840102210436A461073FD
:1016900002A804940890069407940994012090717C
:1016A0009780009468781070A878507090783040D7
:1016B000801C0840EF210840400840009070142131
:1016C0000BA807F0AAFD01A80B9068466A460C908B
:1016D0009486D4861398108711980F9400890BAACA
:1016E00003A91A9B05F050FE05E770B590B00C46B3
:1016F00006461C21684607F090FD6A4610780221D4
:101700000843107000250195039504950595012067
:1017100008AA06959071FE486A4690843420079581
:10172000005D10773520005D5077907FF9210840EB
:10173000F721801C0840EF210840400840009077C6
:10174000208E08AA1070000A50703034A078907073
:10175000E078D070042414210AA807F05EFD09A8DF
:101760000A9007A80B906A4614865586948608A8A6
:1017700033460E90FF33308967330AAA694605F075
:1017800003FE10B070BDFEB50546887A0C460A28E7
:1017900005D8207C0A2802D8207E0A2801D90720F3
:1017A000FEBD2068286060686860A07AA874217C0B
:1017B00078204155217EDE2041550021FF20C9437C
:1017C00077304153012168468171D24981802A4690
:1017D000083201A9012005F070FD0028E0D10026A3
:1017E000274620370AE0A06B7100415A28896A46D3
:1017F00005F097FD0028D3D1761CF6B2B87DB04233
:10180000F1D8207A002802D1607A002806D021463B
:101810003C31284600F0B9F80028C1D121462846BD
:1018200000F088F90028BBD12146284600F0BFF916
:101830000028B5D12146284600F0E9F90028AFD1AB
:1018400021462846FFF759FE0028A9D1207A002812
:1018500013D02846FF304F30AD4923460090433324
:10186000082228392846FFF7E9FE002898D12146AA
:10187000284600F0CEF8002892D1607A00280DD0DA
:101880002846FF305F30A2492346009040330822AB
:1018900017392846FFF7D2FE002881D12146284675
:1018A000FFF723FF002899D121463E31284600F05A
:1018B000F5F8FEBD30B51446827C85B08A4226D943
:1018C0000A2251430A18FF304130C18E924D143222
:1018D000A9421AD069460C8000250195029503950E
:1018E000049512888A8001228A710D8103910493E4
:1018F000C08E01A905F0ADFC002804D16946098815
:10190000A14200D00C2005B030BD0820FBE7072025
:10191000F9E730B5FF300C464130C18E7E4B85B0C3
:10192000994219D06B461C800021019102910391CC
:101930000491C5899D8001259D71198103930492AD
:10194000C08E01A905F085FC0028DCD16946098814
:10195000A142D8D00C20D6E70820D4E71FB50A2230
:10196000514308181C464030408F02AA2146069B6E
:1019700005F07AFD04B010BD08B5002300936B4656
:1019800018809970DA70009808BDF0B58FB00F46D6
:1019900006461C21684607F040FC68460178062090
:1019A0000143684601700024019403940494059453
:1019B000012508A8069456498570091D68460184CA
:1019C00007943978017779784177807FF921084049
:1019D000F721801C0840EF21084041084900684673
:1019E000817714210AA807F018FC08A805710A904D
:1019F00007A80B90684605864486858609A80E9040
:101A0000334630890A330AAA694605F0BDFC0FB097
:101A1000F0BDF0B58FB00D4606461C21684607F0B4
:101A2000FCFB684601780E200143684601700024E3
:101A30000194039404940594012708A8069434495A
:101A4000877018396846018446200794415D6846CE
:101A50000177433529794177807FF9210840F721C3
:101A6000801C0840EF210840410849006846817702
:101A7000142109A807F0D1FB08A8099007A80A902B
:101A800068468485C485078633460D94FF333089C4
:101A9000573309AA694605F077FCB8E7F0B58FB06F
:101AA0000F4605461C21684607F0B7FB68460178DB
:101AB00004200143684601700024019403940494B7
:101AC0000594012608A8069411498670891C684669
:101AD000018407943978017779784177807FF921FB
:101AE0000840F721801C0840EF21084041084900C8
:101AF0006846817708A8047114210AA807F08DFBB5
:101B000008A80A9007A80B9068460686448605E058
:101B10004A2A000012180000FFFF0000868609A86C
:101B20002B460E90FF3328896F330AAA694605F0C9
:101B30002BFC6CE77FB50646887A0D46002833D02B
:101B4000E868002830D000242BE0E868E100431862
:101B5000002069460390087B022108436946087308
:101B60009979090702D00821084301E0F7210840CC
:101B700010210843694608730A2060438119D87907
:101B80001431C007C00F1A1D0291019000921A88EB
:101B900003A930469B1CFFF727FC002805D1641CD5
:101BA000E4B2A87AA042D0D8002004B070BD7FB5BE
:101BB0000646087C0D46002827D06869002824D0F6
:101BC00000241FE06869E100431800206946039083
:101BD000087B0E21084369460873D9790A206043BF
:101BE0008019C907C90F7A301A1D0191029000921D
:101BF0001A8803A930469B1CFFF7F6FB0028D4D1B6
:101C0000641CE4B2287CA042DCD80020CDE77FB57C
:101C10000646087E0D46002827D0E869002824D013
:101C200000241FE0E869E1004318002069460390A2
:101C3000087B0A21084369460873D9790A20604362
:101C40008019C907C90FE0301A1D01910290009256
:101C50001A8803A930469B1CFFF7C6FB0028A4D1B5
:101C6000641CE4B2287EA042DCD800209DE700007E
:101C7000FFB5074683B000200C9C009026780546EF
:101C80003CE07968A800081801886A4611814088FC
:101C90005081002201A902A804F073FF002810D18E
:101CA000684601790598814227D10098002801D023
:101CB000002200E002222078891841181F2902D949
:101CC0000C2007B0F0BD0099002908D1401CC0B21B
:101CD000431C069A04992370115401200090217826
:101CE00006980A1801A902A804F04BFF0028E8D1C1
:101CF000694620780979401820706D1C3888A84200
:101D0000BFDC0098002804D020780699801B401E74
:101D100088550020D5E7F8B51546069C1E460746AF
:101D200002220094FFF7A4FF002806D133461022B8
:101D3000294638460094FFF79BFFF8BDF7B582B0FF
:101D400000260546167000781446002805D028465F
:101D5000039900F0E1F806002ED1A87800281CD0E5
:101D60002078039F001D1F2825D8684604F0DAFF5D
:101D7000002821D121780322481C20707A54217830
:101D80001922481C20707A542078C11968460088AE
:101D900000F0BDF8217840182070A988002923D0D0
:101DA00001208446AA680398002A07D02278531895
:101DB0009B1C1F2B04D90C2005B0F0BD0720FBE7AE
:101DC0001346521C2270491CC15422786746511C8C
:101DD000217087542378AA881818A96807F004FA94
:101DE0002078297940182070E868002815D0002153
:101DF000415622788C46D01C03991F28DBD8501CF2
:101E0000022320708B5422780A23501C20708B549C
:101E100020786246431C23700A54288A002809D07F
:101E200028460094062202211030039BFFF773FF1F
:101E30000600C1D1288B002809D02846009407222B
:101E400003211830039BFFF766FF0600B4D1288CEE
:101E50002F462037002808D0009415221421384638
:101E6000039BFFF758FF0600A6D1A86A002805D0FB
:101E70002246039900F08AF806009DD1E86A0028FE
:101E800005D02246039900F0C0F8060094D1387DB1
:101E9000002806D022462846039900F0E8F80600FC
:101EA0008AD1304688E770B50D4692B000216A4667
:101EB000117007241171002812D08188002905D0E3
:101EC0008168002902D00978490702D4204612B05F
:101ED00070BD02A9FFF732FF0028F8D102AE00E082
:101EE0000026002D0BD0A8880028EFD101AA0AA94E
:101EF0002846FFF723FF0028E9D10AAA00E00022C4
:101F0000684603790178304604F0BCFFDFE70870CB
:101F1000000A487002207047F0B514780746A01CEC
:101F200085B015460E461F2803D87878801C1F28D8
:101F300001D90C2040E71D20001B80B269460090AB
:101F40008880301901A9801C04F0BCFE0028F1D162
:101F50003878022806D1684680880099884201D8DE
:101F6000092108E078780821002802D0009A9042E0
:101F700001D968468088421C3255641CE2B2B154D3
:101F80002978801C08182870002015E7F8B50D4640
:101F900011780646881D14461F2801D90C20F8BD6B
:101FA00033880720062BFAD31927FF01BB4202D939
:101FB0004D4A9342F3D17288062AF0D3BA4202D92D
:101FC000494FBA42EBD1484FBB4203D0BA4201D08D
:101FD0009342E4D8481C052220706A5420781222CB
:101FE000411C21702A54207841193088FFF78FFF57
:101FF00021784018C0B2207041197088FFF787FF20
:102000002178401820700020F8BD70B50546007991
:102010000E46801C1446C0B21178821C8A181F2AF2
:1020200001D90C2070BD0A46491C2170401CB054D7
:102030002078FF22411C2170325420788119288891
:10204000FFF765FF21784018C0B22070AA88002AE7
:1020500009D0A968002908D0801907F0C5F82078B0
:10206000297940182070002070BD072070BDF7B599
:1020700082B002981446006B0F46002832D00298B6
:1020800000252030009028E00298016B0C20684366
:102090000E18217830794A1C2270C01C78542078A0
:1020A0001622411C21703A542078C1193088FFF75C
:1020B0002EFF21784018C0B22070B288002A09D0C3
:1020C000B16800290ED0C01907F08EF82078317958
:1020D000401820706D1C0098EDB2007DA842D3D846
:1020E000002069E6072067E6FFFF00008307FF2264
:1020F000DB0E9A408907090E994000280BDA000789
:10210000000F08388308FF489B001818C3699343E1
:102110000B43C36170478308FB489B001B1818687A
:10212000904308431860704770B50124F749600474
:102130000860F74940108860F54940398860F54DDE
:102140006C602F20FDF7C6FFAC60F34D00242F20FC
:102150006C61FDF7BFFF2C7170BDF0B5EE4F24210F
:10216000BC6841430D1939694A1C09D024224A43ED
:1021700016196B687268934204D8D21A7260296289
:102180003861F0BD0A4602E00A46396A9B1B4E1CC4
:102190000BD024264E4337197E689E42F4D3242662
:1021A0004E4336197768FF1A77606B6029622421E5
:1021B0004A4311190862F0BDF8B5D74C2569681C6F
:1021C00036D0D648002640686169401A07023F0AA7
:1021D0001AE024204543A0682A185068B84215D850
:1021E000A3693F1A8619156A002B0AD0D169906934
:1021F0009847002808D0FF21C9A27531FDF78AFF52
:1022000002E09169D0698847681CE2D1A178E07842
:10221000814206D1401CC0B2E070022801D10020EA
:10222000E070BD490006800D1C310E5000F0FEF933
:10223000F8BDF8B50446B84801690091467856E003
:10224000B548F100C2688D184BE0601C07D0B24A57
:10225000242192686143204689180C6A20E028787E
:10226000182141436A68401CC0B252182870A978EE
:10227000884201D100202870A74B506824219B6818
:102280004143C9181378012B2DD10B7D002B2AD186
:1022900093688B60D368CB6013690B615269CA6124
:1022A0009D4A8F685369BC46FA1A1202A84F120A57
:1022B000BA4202D2CB68D21809E062469A1A1202D8
:1022C000CB68120A934201D99A1A00E000224A60B0
:1022D00000228A60CA6001220A75921E0A62FFF714
:1022E0003CFF601CB1D1287869788842ADD1304676
:1022F000761EF6B20028A3D1874801690098814272
:1023000001D00120F8BD0020F8BD924900200860EE
:1023100048608860C8608F494039086048604BE772
:10232000F0B5002087B0C04302907B48466905693C
:10233000684600F080F9074600F09AF90446002F3D
:1023400008D002AA3146009800F0DAF90298FFF7A7
:1023500070FF06E00298FFF76CFF002801D1002C07
:1023600002D0284600F0F5F907B0F0BDFFB5980798
:10237000002481B01E4615460F4600280BD1002EC2
:1023800009D0FFF7D1FE64490A9888610F70324680
:1023900000208E6008E0072005B0F0BD24234343F1
:1023A000D4549B181C75401CB842F7DB24204743CB
:1023B000BB19032048700F461846CB6019461830E9
:1023C000002218232E465E43D3005B181C705C70FD
:1023D0009D7058603018521C032AF5DB0020C04362
:1023E0003861BC70FC7001245B4824050460032143
:1023F0001420FFF77BFE454880380460474C019865
:10240000A06003211120FFF771FE60687861002051
:10241000C2E770B5404CA568002D06D0002A06D052
:10242000002804D00023247809E0082070BD07208C
:1024300070BD24265E43AE5D002E04D05B1CA3421B
:10244000F7DB042070BD242401265C432E5564195B
:102450006170A2610360002070BD2A494868C00510
:10246000C00D19D0103840B2002807DA0207120F49
:10247000083A920892005118C96904E08108224A7A
:102480008900891809688007C00EC1400806800FBE
:10249000012803D0032803D0022070470020704792
:1024A00001207047FEB504461B48174682680D465A
:1024B000002A0CD001788C4201D2052D01D20720D0
:1024C000FEBD214624235943535C012B01D0082033
:1024D000FEBD8818407801284AD00026FFF7BDFFCE
:1024E000C0000D490190C9684018694600F077F9AD
:1024F00000283FD001210170084944604968083034
:10250000E2C02BE000ED00E000E400E080E100E04C
:102510004013014000100140EC0000200015014074
:102520002E2E5C2E2E5C2E2E5C2E2E5C2E2E5C53C0
:102530006F757263655C6170705F636F6D6D6F6EF8
:102540005C6170705F74696D65722E6300000000DD
:10255000FFFF7F004011014080E200E0C849019880
:10256000C96841180098487000F060F80020FEBD6E
:102570002E46B3E70420FEBDF8B5C14D0446A86859
:10258000002809D029788C4201D30720F8BD2421E6
:102590006143405C012801D00820F8BDFFF75DFFD2
:1025A000C600E8686946301800F019F900280AD01A
:1025B000022101704460E86831180098487000F00A
:1025C00035F80020F8BD0420F8BDFFB528200D46E1
:1025D0004843482151434018A7308008401C81B02F
:1025E0001E461446800006F0C5FE0746002E01D0A8
:1025F000A44800E00020641C0090E2B23B4629465B
:102600000198FFF7B3FE002803D09F4A9F49FDF7CA
:1026100081FD384606F084FEBEE61CB501910090AF
:102620009B4A0821684606F047F81CBD01209949DD
:1026300000050860704710B5914900238A78CC786E
:10264000A24212D0521CD2B28A70022A00D18B70E0
:102650008A788B4B92001C339A5802604869101894
:102660000002000A4861012010BD0360002010BD77
:10267000F8B5834801690091457833E08048E90066
:10268000C0680E1834782AE0182060437168641C12
:102690000818B178E4B2A14200D1002401780229DF
:1026A00002D003291BD113E0754A406824219268A7
:1026B00041438F18397D002911D000F0B0F8002077
:1026C00038750CE024277843C0180275006A03E0CF
:1026D0006B4900228B680869471CF3D10861707848
:1026E000A042D1D128466D1EEDB20028C6D1644863
:1026F00001690098814201D00120F8BD0020F8BD99
:10270000F7B55F4C0025A76823691EE024215943D3
:10271000C9194E68864202D9301A486017E0801BFA
:10272000751900264E600E750E699C460B6AB646FA
:10273000002E0AD0019E76193602360A8E60764641
:10274000CE6016680E6261461160591CDED12361AD
:10275000FEBDF8B54A4801694A1C3DD024225143C8
:10276000826889184E684C494C6847690079E11BBA
:102770000D022D0AED1C002815D10120474A000446
:102780005060464A403A50604249400080310860FB
:10279000434908604349012008602F20FDF79AFC57
:1027A000374901200871B54200D23546E8190002C8
:1027B0003949000A4031086037494968001B091B44
:1027C0000902090A0002000AC91C814203D901203A
:1027D000304940040860F8BDFFF7A6FCF8BD427818
:1027E0008378521C934200D100220378934201D196
:1027F000002070470A60416840781822504308184A
:10280000704710B50446082905D0FF2126A22131C2
:102810000020FDF77FFC21686068884710BD70B517
:10282000174E3569B26829460C4606E0844207D047
:10283000254624235C43A3181C6A631CF6D170BD93
:10284000002BFCD0A54208D1242041438818006AFF
:102850003061401C01D1FFF767FCB168242044437C
:102860006018242342685D43006A6B181862431C99
:10287000E5D024235843401841688918416070BD51
:10288000EC0000201B260000202500009B04000017
:102890000328000000E200E0001501404013014061
:1028A00000E100E0001001402E2E5C2E2E5C2E2E4A
:1028B0005C2E2E5C2E2E5C496E636C7564655C61CB
:1028C00070705F636F6D6D6F6E5C6170705F746967
:1028D0006D65722E6800000010B56B4AD368002B3E
:1028E0000AD0CAB2017840689847002803D067A28E
:1028F0002821FDF70FFC10BD012906D00029FAD1CF
:10290000037842681846904710BD03780121426859
:10291000F8E7F8B55C4D6946687805F07EFE00285A
:102920001DD12F4600241437012615E06968E00008
:102930004018037831463A6899400A4210D04268FC
:10294000002A0DD04178012901D1002100E00121A8
:10295000FFF7C2FF641CE4B228788442E6D3F8BDD6
:102960007A680A42F6D041680029F3D041780129FB
:10297000EDD0EAE770B5444D04460E462869FFF7EE
:10298000FBFD002809D1284614300660446034431A
:102990002246A9682869FFF785FD70BDF8B50C4689
:1029A000052A01D20720F8BD3749444D48600C7014
:1029B000CB608A60002101230BE0E2001218167838
:1029C0009778B600BF007619376016781A46B2407D
:1029D00011432246641EE4B2002AEED12A48384B45
:1029E0000A46401C05F06BFD0028DCD12648354A1C
:1029F00000211030FFF70DFDF8BD10B522484168E9
:102A0000002903D0407805F0ABFD10BD082010BDB3
:102A100010B51D4C6068002808D0607805F0E1FD15
:102A2000002802D12069FFF7A7FD10BD082010BDC6
:102A300038B5154A0C461178884201D9072038BDAF
:102A4000C10050680D1800280CD06946507805F078
:102A5000E4FD0028F3D16A780121002A04D0012A7C
:102A600008D00FE0082038BD2B78009ADA40D20752
:102A700007D104E02B78009ADA40D20701D0217008
:102A800000E02070002038BD100100202E2E5C2EAA
:102A90002E5C2E2E5C2E2E5C2E2E5C536F75726378
:102AA000655C6170705F636F6D6D6F6E5C6170709F
:102AB0005F627574746F6E2E630000000007005033
:102AC000752900001329000010B508461146FDF7CE
:102AD00025FB10BDF8B53B4C2078002839D0206983
:102AE000002807D00026E068002805D00025002E29
:102AF00004D014E00126F6E70125F8E7684604F063
:102B0000CFFD052806D0002806D02FA26921FDF7A9
:102B100001FB04E0012602E0216900988847002DAE
:102B200013D1608869460880A06804F0BBFD0528C1
:102B300006D0002806D024A28021FDF7EBFA04E09D
:102B4000012502E0E168A0688847002ED6D0002D5C
:102B5000CDD0F8BD70B5002901D08C0701D0072079
:102B600070BD184C0125A16062802549636004F0A6
:102B7000ADFD0028F4D12570162004F0C7FD70BD0E
:102B8000002803D00F49C860002070470E2070470E
:102B9000002803D00B490861002070470E207047C1
:102BA00010B508484068002808D08047002804D0A5
:102BB000FF2105A23331FDF7ADFA10BDFFF78AFF03
:102BC00010BD00002C0100202E2E5C2E2E5C2E2E1F
:102BD0005C2E2E5C2E2E5C536F757263655C736485
:102BE0005F636F6D6D6F6E5C736F6674646576693D
:102BF00063655F68616E646C65722E63000000003F
:102C0000C92A00000A7B002A03D04968016000211C
:102C100002E00968016001210171704710B5047973
:102C20008B680268002C08D049688C1A9C4201D934
:102C3000D11807E00160002108E00968541A9C429D
:102C400002D9D11A016002E001600121017100681E
:102C500010BD000070B5F94B04469E7A082000258F
:102C60000E4207D0F648844202D01889A04202D111
:102C70000020156070BD052070BD70B50546EF4998
:102C80001C206843FC39441820461130062106F008
:102C9000C4FA2046102106F0C0FAFF21217400205A
:102CA000A176C0432083284600F0BEFC70BDF7B576
:102CB000E24F052500240646FC3F002E0AD01C20CA
:102CC0006043C01907223146103006F0B8FA0028D8
:102CD00007D00AE01C206043C019018B0298814292
:102CE00003D101980025046002E0641C072CE4D3A2
:102CF0002846FEBD0C214843D04910B5012240189A
:102D00008272911E0181FF21C172072106F085FAAE
:102D100010BD00207047F0B589B00D4607461C2055
:102D20006946888368780C214843C44E07AA8019F5
:102D30000089694604F009FC00282FD168783446E0
:102D40004001203C001969468A8B001D06F077FA85
:102D50000028687805D04001215800290DD0B94ECF
:102D60000CE00C2141438919897A890716D4400166
:102D70000019202106F051FA10E0B34E69468A8B03
:102D80002250687840010019001D06F02DFA68787D
:102D900034234001011920223846B047002009B0F1
:102DA000F0BD70B50D4601466878A44C4001203C4A
:102DB00000193423202205F0C3F9002805D16978D1
:102DC00049016258521C00D1625070BDF8B540787C
:102DD0009A4B4501203B994E0C2700215C597843C2
:102DE00080190A46002C07D0867A770604D5B606E5
:102DF00002D4E918A2B2091D008904F0FBF90028E9
:102E000000D09248F8BD002806D0FF210170417023
:102E10008170C170002070478C4833387047FFB50F
:102E200086488BB00C300068149F1E46002867D07F
:102E3000582F65D803A8FFF7E6FF002803D0844A7F
:102E40008449FDF767F900256846057305702C462F
:102E500004970596A1B208AA7F4805F047F8002814
:102E600006D1082208A90B9806F0E9F9002818D025
:102E7000641C072CEED36846847BFF2C40D00C9852
:102E8000042811D06D481C21FC38301A06F096F940
:102E90000127072824D204A801900D98002811D0FA
:102EA00017E068468473E6E7582F09D0402069464A
:102EB000087068460178032001436846017043E0CA
:102EC0002020F4E738466449A04010394968084298
:102ED00016D0204600F0A8FB2020694608702AE0A2
:102EE000564818213838301A06F068F9002809D0F9
:102EF00052482038311A490911D0402069460870DB
:102F00000FB0F0BD04A801902020694608701C2075
:102F100044434A484D73FC38201805900BE030229A
:102F200069460A704D73CF734449897A890702D480
:102F3000202106F072F90C986946032808780BD016
:102F4000022108436946087004A80190694603A855
:102F50000D9A00F097FBD3E73843F4E7F0B585B05E
:102F6000040035D0354900250C310D6028468D729E
:102F7000FFF7C0FE31482021203806F04EF9002628
:102F8000FF273046FFF779FE334808388755761C0F
:102F9000072EF6D35821684681800721C1802F482B
:102FA00000902D49684604F042FF00280ED12A4EB9
:102FB0000120103E3070207800280CD069468888A7
:102FC000C988484381B2244805F002F905B0F0BD34
:102FD0001E483338FAE7194F0024FC3FA1B202AA79
:102FE0001D4804F083FF002809D11C206043C0194C
:102FF00000231C2202A905F0A3F8002801D0357097
:10300000E4E7641C072CE9D3E0E770B506461248F4
:103010000D4610380078002822D00C493339002E94
:1030200020D0002D1ED0286800281BD0034C0C3463
:103030002168002918D005483D3870BD14060020CD
:10304000FFFF0000C37F0000377F000041800000C9
:1030500060940000C3040000500100201F2E0000F7
:10306000F848EAE70846E8E720600622A91D201D87
:1030700006F0BAF82879A07200203070DDE7F0B5CC
:10308000F14A1378EF4A002B19D0931D00280BD07A
:10309000002909D00C68002C06D08C68002C03D0C5
:1030A000007800280BD101E01846F0BDE748006821
:1030B000002804D0002318461A46E54D19E01046B2
:1030C000F0BD1C2454436419A67EF60706D18E6811
:1030D0008700F451DC4E08363254401CA67EB607F9
:1030E00004D49F0010340E685B1CF451521C072A54
:1030F00005D20C799C4202D90C7B8442E1D80B7139
:1031000008730020F0BD7CB50446CF480D46017819
:10311000CC4800292CD0811D002C28D0002D26D091
:103120002178002924D1C9490968002920D0C5493E
:103130006078083100281AD1C4480C38807A0128F8
:1031400015D0A078072812D21C225043C04A8018FC
:10315000807EFF280BD0A96800290ED06A68002A5B
:103160000BD01C2A09D22878012802D005E0084695
:103170007CBDB648283806F037F8B348A1786A46CF
:10318000103004F0B3FE2878B24980000A58214676
:10319000684690477CBDFEB50E4604468178AA4835
:1031A0006A46103004F0A2FE002826D16078A74FAE
:1031B0000C2148430C3FC019807A80061ED4022E91
:1031C0001CD0012E1CD0A44DA0781C214843A0493E
:1031D000002341181C226846A847002812D0022E5E
:1031E0000BD020780C21484398494018807A99499F
:1031F00080000A58214668469047FEBD974DE3E798
:10320000974DE1E7022EF8D060780C214843C019B1
:10321000817ADF22114081726078182148438B49FE
:103220001C234439411818226846A847D9E70B46A1
:1032300010B58549834A0978002920D0911D0028BE
:1032400005D0002B03D00178002918D101E00846F1
:1032500010BD7E490968002911D07A4A8178D21EB2
:10326000FF290ED01C20414379480918887E800729
:1032700005D407221846103105F0B6FF002210468B
:1032800010BD4078FF28FAD00C2148436F490C3913
:103290004118887A8007F2D507221846ECE71CB55A
:1032A0000446817868486A46103004F01FFE002802
:1032B00013D160781821484364491C2344394018CD
:1032C0001822694604F03CFF60486249807A800019
:1032D00010310A582146684690471CBDF0B5054696
:1032E00087B0FF2458480594007800286CD0574FC9
:1032F0003868002868D001A8FFF785FD002803D0B2
:10330000584A5949FCF706FF002006460690281D3A
:103310000390342168460182FF21817100210171EF
:1033200000914A4C28880C3C10280ED0A8886A4688
:103330000221FFF78FFC002807D100980C214143A0
:103340000919CA7A69468A7148712888142877D081
:103350002DDC10283AD0112873D0132834D16946B7
:103360000872A8883A1D002103F04DFE00282BD1D9
:1033700000980C21414309198A7A04231A438A725E
:10338000C97AFF2912D016216A4611722F494001CD
:103390002C3940181C21001D05F03FFF00980C211E
:1033A00048430019817A20221143817228E11728AD
:1033B0006FD02849203118286CD0522804D1B87A0F
:1033C0008000095801A8884707B0F0BD274F6A461A
:1033D00001213846FFF73EFC0028F5D100990C206A
:1033E000484302220019827211236A4613725171F6
:1033F000A98801810722A91D05F0F6FE687BC10797
:1034000007D0410810480830405CFF2808D00590DC
:1034100006E03A4605A9A81DFFF749FC0028C5D1DA
:1034200000990C22514309190598C8728A7A082319
:103430001A438A726946887101A8FFF730FFDFE0FE
:103440003CE015E00880000040010020200600203C
:103450001805002004940000132D0000C37F000015
:10346000377F00006094000037090000FFFF000074
:1034700000980C2148430119887AFD221040887277
:10348000010708D540060FD5002101A8FFF783FEEC
:103490000AE044E0A1E068468079FF2804D0FFF705
:1034A000ECFBFF206946887100980C2250431021E4
:1034B00000198172122069460872A1E000980C215F
:1034C00048430019C07AFF281CD1EA8905A90020C9
:1034D000FFF7EDFB00280ED100990C22514309198A
:1034E0000598C8728A7A08231A438A7269468871D5
:1034F00001A8FFF7D4FE00980C2148430019C07AB8
:10350000FF2806D00098182148436C494018001D38
:103510000690A8880022069903F043FD54E700981E
:103520000C21414309198A7AFB231A408A7214211B
:103530006A461172A979002901D00E4660E018216F
:1035400048435E4914224018E97A8170A97A417093
:1035500029460C31001D05F047FE00980C21484318
:103560000119887A42064BD5082210438872CA7A1C
:10357000FF2A04D0202210438872002129E005A8E8
:1035800000F059F8002801D0064639E06946059850
:10359000887100990C224A431219D072474F1C239C
:1035A0005843C43FAA89C0190283E87A40070FD55F
:1035B0001C204143C81929461022203105F014FE71
:1035C00000981C214843C019817E49084900817632
:1035D000012101A8FFF7DFFD12E000980C22504303
:1035E0000019827A40231A43827215206A461072AB
:1035F000B87A8000095801A88847002800D0304ECA
:1036000002A9324601A800F03DF86846007A122867
:1036100084D100980C2141430919897A012900D1EC
:10362000D2E6FFF767FBCFE60121814025484268DB
:103630008A434260704770B50546214A1F48921C74
:103640000024C4381C2363431B189B7EFF2B04D02B
:10365000641C072CF6D31046EFE40A78022A09D03E
:103660001C2262431018FD2282760722103005F0DA
:10367000BBFD04E01C2161430818FE2181762C70FB
:103680000022E8E70D4B44331B68184700207047C1
:103690000020704710B5FFF73EFB10BD00207047BB
:1036A0000020704710B5FFF77CFB10BD002070476D
:1036B0000020704710B5FFF789FB10BDDC05002026
:1036C000418000004001002038B56749674A4888BA
:1036D000904210D04A78664C521CD2B24A70237B7A
:1036E000934209D3083103F002FC002803D0A169FA
:1036F000002900D0884738BD00254D70217C002965
:1037000008D03B2103F020FC002803D0A169002948
:1037100000D0884761690029EDD068460570884768
:1037200038BD70B5054601461C22514805F05CFDC8
:103730004D4C002626702968002908D00822A018C0
:1037400005F052FD2046083003F071FB03E04648C7
:10375000083003F0A5FC002808D1401E60804248D4
:103760006670444A0021001DFEF753FE70BDF8B597
:103770003D48103000F06BF800263B4D3C4C0028D3
:1037800007D0616900291BD001206A461070684685
:1037900015E02878002805D06169002910D0684616
:1037A00006700CE0687800280CD0A16800226868D8
:1037B000FEF778FE002803D0A169002900D08847D1
:1037C0002E70F8BD6168F1E7F8B5294C0288002732
:1037D000254DE689102A18D029464968112A21D09A
:1037E000122A2DD0502A0FD1C288801DB2420BD18F
:1037F000028B022A08D1C27E837E10021843C007C2
:10380000C00F13D0FFF7B3FFF8BD81886980014670
:10381000154808220E31103005F0E6FC6F70002EBE
:10382000F0D0F8BD0020C04368806F700846FEF7F6
:10383000A3FE0028F5D0A1690029F2D08847F8BD81
:10384000811D09480822103005F0CEFCDAE74188D6
:10385000054808300288914204D34088814201D84B
:10386000012070470020704758010020FFFF000032
:103870002C060020C93600000A7802704978417091
:103880000220704770B504460D46084605F0D0FC8E
:103890002080656070BD000072B606480168491C52
:1038A0000160704703490868401E086000D162B695
:1038B00070470000700100201CB5144600220192E0
:1038C000002906D0002C04D02268032A03D2092044
:1038D0001CBD0E201CBD60220A7001220192084A04
:1038E000009201AB226803F0F5F80028F2D10199AB
:1038F00021601CBD10B51346602202F0B0FF10BD60
:1039000003680000F8B51C461646002810D0002CAD
:103910000ED002290AD34278037815021D43801C79
:10392000891E002E08D02268042A03D20920F8BD7F
:103930000E20F8BD121F22600027322D7FD022DC1E
:10394000162D49D010DC122D4BD006DC012D39D0BC
:10395000102D50D0112D31D152E0132D65D0142DE2
:103960005ED0152D2AD132E01A2D53D006DC172D4A
:1039700060D0182D3AD0192D20D146E0302D6DD0D1
:10398000312D1BD18FE0502D72D009DC2A46333AFD
:10399000130005F0A8FC075E5968827D6E73130062
:1039A000542D70D006DC512D6ED0522D6DD0532D7C
:1039B00004D18CE0552D69D0702D68D00520002EE3
:1039C00070D19EE02346324600F0A3F892E02346F1
:1039D000324600F0B8FD8DE02346324600F06CFB25
:1039E00088E02346324600F089FC83E023463246D5
:1039F00000F0CBFC7EE02346324600F00CFD79E07F
:103A00002346324600F06DFD74E02346324600F056
:103A1000C6FE6FE02346324600F0CBFD6AE00EE0C2
:103A20002346324600F0F7FD64E02346324600F0BC
:103A300059FE5FE02346324600F070FB5AE0234611
:103A4000324600F0FBFF55E02346324601F0C7F84E
:103A500050E02346324601F051F94BE0234632460E
:103A600001F026FA46E02346324601F09CFA41E096
:103A70001EE02346324601F0B5F93BE023463246CC
:103A800001F03FFB36E01DE02BE025E015E02DE0E6
:103A90002346324601F068FB2CE02346324601F013
:103AA000EEF827E02AE02346324601F0E2FA21E070
:103AB0002346324601F099FD1CE02346324601F0D0
:103AC00062FD17E02346324601F003FD12E0234673
:103AD000324601F093FC0DE02346324601F021FD11
:103AE00008E02346324601F0BBFC03E023463246A1
:103AF00002F0B8F8002E04D0002806D0378000214C
:103B000071802168091D2160F8BD3580218889B246
:103B1000F6E7FFB581B00020009001981D461446DD
:103B20000F4600280CD0002D0AD0032F1FD30326E8
:103B3000002C07D02868032806D20C2005B0F0BD61
:103B40000E20FBE71E6015E001202080032060802E
:103B5000231D6A46019802F0D2FE234608336A46C6
:103B60003946019802F0F4FE0098B84201D00920CD
:103B7000E4E72E600020E1E7002906D0002A04D007
:103B80001368022B03D2092070470E20704771235F
:103B90000B70002800D00120487002201060002027
:103BA0007047FEB51F46144606000D4627D0002F6D
:103BB00025D000200A460190712301A900973046C4
:103BC00002F02EFE002819D13868002801D0019893
:103BD00011E0019AD01DA8420FD8002C0FD0B05C84
:103BE0002070521CB11801920622601C05F0FCFAEC
:103BF0000198801D0190A84203D00920FEBD0E202F
:103C0000FEBD0020FEBD10B51C46002A0BD0002CC6
:103C100009D02368032B10D3702313705070002930
:103C200003D0012002E00E2010BD00209070032080
:103C300000290CD020680A2801D2092010BD08787C
:103C4000D070101D0622491C05F0CEFA0A20206013
:103C5000002010BD10B51346702202F000FE10BD0A
:103C6000FFB583B00C9D0D9C1F46002D25D0002C68
:103C700023D00020019072206946087201AB2946CA
:103C800002A8226802F04AFE002814D101AE009674
:103C90002A4623680499039802F099FE00280AD165
:103CA00000962A4639462368059802F090FE0028BF
:103CB00001D10199216007B0F0BD0E20FBE710B5DE
:103CC0001346722202F0CBFD10BDF8B517460D0069
:103CD00006460AD0002F08D0386802284FD3732038
:103CE0002870002E03D0012002E00E20F8BD002035
:103CF00002246870002E50D0386804283FD33078F2
:103D0000A8707068002800D00120E8707068042452
:103D100000280BD039680B2931D3007828717168DD
:103D2000681D0622491C05F05FFA0B243968A01CA7
:103D3000814224D3307A2855F068641C002800D0D2
:103D400001202855F168641C002914D00A79082A3A
:103D500002D8087B082801D90720F8BDD3009A1A99
:103D60000001101800193A68801C904207D82819E1
:103D700000F01CF804193968201D814201D2092085
:103D8000F8BD2919308A0870000A4870A41C708A8E
:103D900029190870000A4870A41C00203C60F8BD76
:103DA00010B51346732202F05AFD10BDF8B5064651
:103DB000002708790D46307001240EE02968B8000C
:103DC00009580622097831552968641C09583019A8
:103DD000491C05F009FAA41D7F1C2879B842EDD8CA
:103DE000287B30550027641C08E0A868B9004158BA
:103DF0003019102205F0F8F910347F1C287BB842E6
:103E0000F3D82046F8BD002906D0002A04D0136854
:103E1000022B03D2092070470E20704779230B70C4
:103E2000002800D001204870022010600020704758
:103E3000FEB51D46174606000C4613D0002D11D0C6
:103E400000200A460190792301A90095304602F02E
:103E5000E7FC002807D12868002805D00198A04277
:103E60000DD10EE00E20FEBD0198801CA04206D8A8
:103E70003B4601AA2146304602F041FDEEE709200B
:103E8000FEBD0020FEBD002906D0002A04D0136824
:103E9000032B03D2092070470E20704778230B7044
:103EA0004870000A8870032010600020704710B529
:103EB0001346782202F0D3FC10BDF8B51F4615005A
:103EC0000E460ED0002F0CD03968042915D3752169
:103ED0002970691C00F030F8401C002E03D001212D
:103EE00002E00E20F8BD0021441C2954002E1AD0F7
:103EF000204639680930814201D20920F8BD2919CC
:103F0000308800F019F804192919708800F014F8A5
:103F100004192919B08800F00FF804192919F0883C
:103F200000F00AF8041900203C60F8BD10B51346F3
:103F3000752202F094FC10BD0870000A487002203F
:103F4000704730B5002A0AD0002B08D01C68022C1C
:103F500018D37D241470002903D0012402E00E2020
:103F600030BD002454700224002907D01C68042CA2
:103F700008D30C889470240AD47004241D68611C32
:103F80008D4201D2092030BD002800D001201055FB
:103F9000641C00201C6030BDFFB583B00C9D1E4624
:103FA0000C46070025D0002D23D000200A460190A2
:103FB0007D2301A90095384602F032FC002806D185
:103FC0002868002805D00198A04210D1002007B031
:103FD000F0BD002E0DD005AB01AA21463846009653
:103FE00002F056FD0028F2D10199A142EFD009203C
:103FF000EDE70E20EBE770B5049D002B0AD0002DF5
:1040000008D02C68022C2CD37C241C70002803D0F0
:10401000012402E00E2070BD00245C700224002800
:1040200005D02C68032C1CD30078987003241F2A19
:1040300001D9072070BD2E68E01C864211D31819E3
:10404000160A0270A41C4670002901D0012000E06D
:1040500000201855641C002909D02868A61886423B
:1040600001D9092070BD181905F0BEF834460020AA
:104070002C6070BD10B513467C2202F0F0FB10BD21
:1040800010B5002A06D0002B04D01C68042C03D2E3
:10409000092010BD0E2010BD762414705070000A47
:1040A0009070D17004201860002010BD10B5134628
:1040B000762202F0D4FB10BDFFB581B00020009045
:1040C00001981D4614460F4600280CD0002D0AD03A
:1040D000032F1ED30326002C07D02868032806D2FE
:1040E0000C2005B0F0BD0E20FBE71E6014E016208A
:1040F000208003206080231D6A46019802F0FFFBA8
:10410000A31D6A463946019802F022FC0098B84285
:1041100001D00920E5E72E600020E2E7FEB5054664
:10412000002014461E460F460090002D0AD0002E97
:1041300008D034200190002C06D03068342805D2F5
:104140000C20FEBD0E20FEBD1860D5E0092F7DD3EA
:1041500034206080231D6A46284602F0D0FB009878
:10416000FB22295CA171401C295CE171217A401C71
:1041700011402A5C9206D20F920011432172FD2257
:1041800011402A5CD206D20F5200114321722A5CE0
:10419000490812074900D20F11432172617AFB22AC
:1041A00011402A5C5207D20F920011436172FD2226
:1041B00011402A5C9207D20F5200114361722A5CAF
:1041C0004908D2074900D20F11436172A17AEF2248
:1041D0001140401C2A5CD206D20F12011143A17279
:1041E0002B5CF7221B07DB0F1140DB001943A17288
:1041F000FB2319402B5C5B07DB0F9B001943A1726B
:10420000FD2319402B5C9B07DB0F5B001943A17258
:104210002B5C4908DB074900DB0F1943A172401CE6
:10422000E17A2B5C4908DB064900DB0F1943E17298
:10423000FD2319402B5C1B07DB0F5B001943E17268
:10424000FB2319402B5C5B07DB0F00E050E09B0079
:104250001943E17211402A5C23469207D20FD20023
:104260001143E172EF2211402A5C401CD207D20EAA
:104270001143E17200900C336A4639462846A41D6A
:1042800002F03DFB009801462831B94230D8291888
:1042900020461022083004F0A7FF0098217E10303D
:1042A0002A5CC9075208C90F5200114321762A5CC3
:1042B0004908D2074900D20F11432176401C291822
:1042C0000090204610221A3004F08EFF00982A2118
:1042D00010302A5C0A55401C2918009020460622FE
:1042E0002B3004F081FF0098801D0090B84201D06F
:1042F0000920FEBD019830600020FEBDFFB581B0F1
:104300000020009001981D4614460F4600280CD04E
:10431000002D0AD0042F33D30A26002C07D028689A
:104320000A2806D20C2005B0F0BD0E20FBE71E6067
:1043300029E0122020800A206080231D6A4601980F
:1043400002F0DDFAA31D6A463946019802F0D7FA59
:10435000234608336A463946019802F0D0FA2346CC
:104360000A336A463946019802F0C9FA23460C33EB
:104370006A463946019802F0C2FA0098B84201D064
:104380000920D0E72E600020CDE7FFB506460020CB
:1043900081B01D4614460090002E0DD0002D0BD08C
:1043A0000298042832D30427002C07D02868042858
:1043B00006D20C2005B0F0BD0E20FBE71F6028E000
:1043C0001820208004206080231D6A463046029910
:1043D00002F095FAA079E31D010900980901325C09
:1043E0001207120F1143A171325C09071209090F5C
:1043F00012011143A171401C00906A463046029997
:1044000002F0A6FA00990298814201D00920D1E772
:104410002F600020CEE7FFB50546002081B01E4684
:1044200014460090002D0DD0002E0BD002981228BB
:1044300052D31227002C07D03068122806D20C2045
:1044400005B0F0BD0E20FBE71F6048E01220608041
:10445000231D6A462846029902F051FA0098062266
:10446000295CA171401C29180090E01DA41D04F0D6
:10447000BBFE0098E179801D2A5C4908D2074900FB
:10448000D20F1143E1712A5CC9075208C90F5200CB
:104490001143E171401C2346009008336A462846C8
:1044A000029902F02CFA23460A336A4628460299FA
:1044B00002F025FA23460C336A462846029902F098
:1044C0001EFA23460E336A462846029902F017FA6E
:1044D00000990298814201D00920B1E7376000209D
:1044E000AEE7FFB581B00020009001981D4614464C
:1044F0000F4600280CD0002D0AD0032F1ED3032610
:10450000002C07D02868032806D20C2005B0F0BD87
:104510000E20FBE71E6014E0112020800320608045
:10452000231D6A46019802F0EAF9A31D6A4639463E
:10453000019802F00DFA0098B84201D00920E5E791
:104540002E600020E2E7FFB50746002081B01D463F
:1045500014460090002F0DD0002D0BD00298082893
:1045600022D30826002C07D02868082806D20C2061
:1045700005B0F0BD0E20FBE71E6018E0152020807E
:1045800008206080231D6A463846029902F0B7F978
:10459000009806223918A01D04F026FE0098029902
:1045A000801D0090884201D00920E1E72E600020A4
:1045B000DEE7FFB581B00020009001981D4614464B
:1045C0000F4600280CD0002D0AD0032F1ED303263F
:1045D000002C07D02868032806D20C2005B0F0BDB7
:1045E0000E20FBE71E6014E01A202080032060806C
:1045F000231D6A46019802F082F9A31D6A463946D6
:10460000019802F0B0F90098B84201D00920E5E71E
:104610002E600020E2E7FFB50546002081B01E466F
:1046200014460090002D0DD0002E0BD002980C28BF
:1046300053D30E27002C07D030680E2806D20C204A
:1046400005B0F0BD0E20FBE71F6049E0142020807C
:104650000E206080231D6A462846029902F04FF919
:1046600000982346295CA171401C295CE171401C23
:10467000295C2172401C295C6172401C295CA1727A
:10468000401C295CE172401C295C2173401C009095
:104690000E336A462846A41D029902F030F9A07A2A
:1046A0004108009849002A5CD207D20F1143A17239
:1046B000FD2211402A5C9207D20F52001143A172D1
:1046C000FB2211402A5C401C5207D20F920011437A
:1046D000A17202990090884201D00920B0E73760AA
:1046E0000020ADE7FFB50546002081B01E46144608
:1046F0000090002D0DD0002E0BD00298072849D332
:104700000827002C07D03068082806D20C2005B0F6
:10471000F0BD0E20FBE71F603FE013202080082043
:104720006080231D6A462846029902F0E8F8A41D1D
:1047300023466A462846029902F0E1F80099A078DB
:104740006A5C4008D2074000D20F1043A070FD22DF
:1047500010406A5C9207D20F52001043A070E3220F
:1047600010406A5CD206520F92001043A070DF2204
:1047700010406A5C491C9206D20F52011043A0708F
:10478000685CE070491C685C2071491C02980091CB
:10479000814201D00920BAE737600020B7E7F8B5B9
:1047A000074600201D4614460090002F04D0002D1F
:1047B00002D003291FD101E00E20F8BD0326002CF2
:1047C00004D02868032803D20C20F8BD1E6015E031
:1047D00019202080032060800146231D6A46384648
:1047E00002F08DF8A31D6A460321384602F0B0F8A6
:1047F0000098032801D00920F8BD2E600020F8BDE4
:10480000002906D0002A04D01368022B03D2092005
:1048100070470E2070477B230B70002800D00120CA
:1048200048700220106000207047FFB583B0144626
:1048300000201F460D46009301900A467B2301A9E4
:10484000039801F0EDFF060003D13868002802D07C
:10485000002007B0F0BD002C20D001980830A842FD
:104860001AD8234601AA2946039802F048F8A31C47
:1048700001AA2946039802F042F8231D01AA2946FD
:10488000039802F03CF8A31D01AA2946039802F000
:1048900036F80198A84203D00920DAE70E20D8E7BD
:1048A0003046D6E7F8B516460C0005460AD0002E6D
:1048B00008D0306802280FD37A202070002D03D052
:1048C000012002E00E20F8BD002060700220002DC3
:1048D00018D030680A2801D20920F8BDA11C288808
:1048E00000F019F8871CE119688800F014F8C7195E
:1048F000E119A88800F00FF8C719E119E88800F05D
:104900000AF8C01930600020F8BD10B513467A22AD
:1049100001F0A5FF10BD0870000A48700220704722
:10492000F8B5069E1C0017460D460DD0002E0BD084
:104930003168042930D3812121706070000AA07091
:10494000002D03D0012002E00E20F8BD0020E07011
:104950000420002D0ED0306817281DD3298821711E
:10496000090A6171A01D1022A91C04F03DFCA87C5D
:10497000A07517203268411C8A420DD3002F01D048
:10498000012100E000212154401C002F0CD00546DD
:1049900031681035A94201D20920F8BD2018102233
:1049A000394604F021FC284630600020F8BD10B5DF
:1049B0001346812201F053FF10BD30B5039D002B3B
:1049C0000ED0002D0CD02C68052C13D37F241C7026
:1049D0005870000A9870D970002A03D0012002E0B4
:1049E0000E2030BD002018710520002A1DD0286837
:1049F0000A2801D2092030BD11885971090A99711C
:104A000090788106C406C90F640F4901A4002143B0
:104A10008407E40F6400C0072143C00F0143D9712C
:104A2000D0781872107958720A202860002030BDA2
:104A300010B513467F2201F012FF10BDFFB58BB0F9
:104A4000002002900B98154600282BD00E980028C5
:104A500028D00C9808287DD3014607AB02AA0B98F2
:104A600001F04DFF08AB02AA0C990B9801F047FF2B
:104A700009AB02AA0C990B9801F041FF01AB02AA05
:104A80000C990B9801F03BFF684686880A20464344
:104A90000E36002D7DD00E980068B04204D20C2056
:104AA0000FB0F0BD0E20FBE7322028806E806846F4
:104AB000808BA8806846008CE8806846808C2881BE
:104AC00068468088A881C1004018029941180C9856
:104AD00081427ED8002774E00A2078434419234697
:104AE0000E3302AA0C990B9801F009FF23461033EC
:104AF00002AA0C990B9801F02BFF04AB02AA0C99A7
:104B00000B9801F025FF6946A07C097C4008C90785
:104B10004000C90F0843A074FD2108406946097C84
:104B20008907C90F49000843A074FB210840694662
:104B3000097C4907C90F89000843A074F721084080
:104B40006946097C0907C90FC9000843A074EF2111
:104B5000084000E03DE06946097C06ABC906C90F84
:104B600009010843A074DF2108406946097C02AAB4
:104B70008906C90F49010843A074BF21084069464E
:104B8000097C4906C90F89010843A0740C990B9848
:104B900000E020E001F0DCFE6946087E2346C00705
:104BA000C00FE074143302AA0C990B9801F0A7FE11
:104BB0002346163302AA0C990B9801F0A0FE7F1C25
:104BC000BFB268468088874286D302990C9881429A
:104BD00001D0092064E70E980660002060E7FFB569
:104BE00087B007981D4614460E46002845D0002D74
:104BF00043D000200190062E3CD308202F68286067
:104C000003AB01AA079801F07AFE04AB01AA314672
:104C1000079801F074FE05AB01AA3146079801F030
:104C20006EFE0020002C0FD02868B84222D8342015
:104C3000208068468089A0806846008AE0806846B7
:104C4000808A208120460C3029680090791A0291D0
:104C500002AB01AA3146079801F06CF900280AD18D
:104C60002968029A89182960002C00D06180019976
:104C7000B14200D009200BB0F0BD0E20FBE7F8B523
:104C80000546002014460E460090002D0FD0002B44
:104C90000DD00A2E30D3E879A97902020A430A32EC
:104CA000002C06D01868904206D20C20F8BD0E20C9
:104CB000F8BD00201A60F8BD1A6036202080231D40
:104CC0006A463146284601F01AFEA31D6A4631465F
:104CD000284601F014FE234608336A46314628462A
:104CE00001F00DFE23460C336A463146284601F09A
:104CF00083F90099B142DED00920F8BDFFB587B035
:104D00000020009007981F461446002829D0002F45
:104D100027D00898082860D3014603AB6A46079855
:104D200001F0EDFD04AB6A460899079801F0E7FD34
:104D300005AB6A460899079801F0E1FD01AB6A46A8
:104D40000899079801F0DBFD6846858806204543F1
:104D50000E35002C43D03868A84204D20C200BB08A
:104D6000F0BD0E20FBE733202080658068468089F7
:104D7000A0806846008AE0806846808A2081684674
:104D80008088A081810040180099411808988142CC
:104D900023D8002619E006207043031902936A46BF
:104DA0000E330899079801F0AAFD029B6A4610335A
:104DB0000899079801F0A3FD029B6A4612330899EF
:104DC000079801F0C5FD761CB6B268468088864219
:104DD000E1D300990898814201D00920BFE7002063
:104DE0003D60BCE7FFB581B00020009001981F46F0
:104DF0001446002813D0002F11D002980B2852D34C
:104E00000198817A407A0E02064335461335002C0C
:104E100007D03868A84206D20C2005B0F0BD0E209D
:104E2000FBE71D6042E0382020806580231D6A4634
:104E30000299019801F063FDA31D6A460299019849
:104E400001F05DFD234608336A460299019801F09E
:104E500056FD23460C336A460299019801F04FFD36
:104E600023460E336A460299019801F071FD2346EC
:104E700010336A460299019801F041FD00980299A9
:104E800082198A420FD8002E09D00199324609189A
:104E90002046123004F0A8F90098801900900146CD
:104EA0000298814201D00920B7E73D600020B4E7B5
:104EB000FFB585B0002000900598144600282AD040
:104EC0000898002827D00698082866D3014602AB28
:104ED0006A46059801F013FD03AB6A4606990598EA
:104EE00001F00DFD04AB6A460699059801F007FD37
:104EF00001AB6A460699059801F001FD6846808875
:104F0000C5000E35002C4AD008980068A84204D28B
:104F10000C2009B0F0BD0E20FBE73020208065801A
:104F200068460089A08068468089E0806846008ADB
:104F3000208168468088A081C100081A0099411824
:104F40000698814229D800261FE0F00007193B4649
:104F50000E336A460699059801F0D1FC3B461033A2
:104F60006A460699059801F0F3FC3B4612336A46FF
:104F70000699059801F0C3FC3B4614336A4606992E
:104F8000059801F0BCFC761CB6B268468088864263
:104F9000DBD300990698814201D00920B9E708982F
:104FA00005600020B5E7FFB581B0002000900198B2
:104FB0001F461446002813D0002F11D002980C2849
:104FC00052D30198C17A807A0E02064335461335D2
:104FD000002C07D03868A84206D20C2005B0F0BDDE
:104FE0000E20FBE71D6042E0352020806580231DF8
:104FF0006A460299019801F082FCA31D6A46029953
:10500000019801F07CFC234608336A460299019816
:1050100001F075FC23460C336A460299019801F0B1
:105020006EFC23460E336A460299019801F067FC34
:10503000234610336A460299019801F060FC0098FB
:10504000029982198A420FD8002E09D0019932465E
:1050500009182046123004F0C7F800988019009013
:1050600001460298814201D00920B7E73D60002047
:10507000B4E7F8B50646002014460D460090002E11
:1050800011D0002B0FD0082D39D3F079B17902025D
:105090000A430A2042430A32002C06D01868904284
:1050A00006D20C20F8BD0E20F8BD00201A60F8BD15
:1050B00031202080231D6A462946304601F00DFC30
:1050C0000028F4D1A31D6A462946304601F005FCAC
:1050D0000028ECD1234608336A462946304601F0C1
:1050E000FCFB0028E3D123460C336A4629463046B0
:1050F00000F0D9FF0028DAD10099A942D7D00920C1
:10510000F8BDFFB581B00020009001981D461446FF
:105110000F4600280CD0002D0AD0032F1FD30D26D8
:10512000002C07D028680D2806D20C2005B0F0BD51
:105130000E20FBE71E6015E0392020800D206080E6
:10514000231D6A46019801F0DAFB23460C336A46B8
:105150003946019801F0FCFB0098B84201D00920C3
:10516000E4E72E600020E1E7FFB581B00020009069
:1051700001981F461446002813D0002F11D0029822
:105180000D2859D30198017BC07A0E02064335469B
:105190001535002C07D03868A84206D20C2005B07F
:1051A000F0BD0E20FBE71D6049E0372020806580C0
:1051B000231D6A460299019801F0A1FBA31D6A46CE
:1051C0000299019801F09BFB234608336A46029935
:1051D000019801F094FB23460C336A46029901982A
:1051E00001F08DFB23460E336A460299019801F0C7
:1051F000AFFB234610336A460299019801F07FFB0A
:10520000234612336A460299019801F078FB009810
:10521000029982198A420FD8002E09D0019932468C
:1052200009182046143003F0DFFF00988019009021
:1052300001460298814201D00920B0E73D6000207C
:10524000ADE70000FFB583B00C9F0D9C002F38D058
:10525000002C36D00025A2206946019508722668E8
:1052600001AB3246394602A801F058FB002826D18E
:1052700001AB3246394603A801F01EFB00281ED1BF
:105280002748009001AB32463946049801F022FCD1
:10529000002814D12348009001AB324639460598C6
:1052A00001F018FC00280AD101AB324639460095BE
:1052B000069801F00FFC002801D10199216007B088
:1052C000F0BD0E20FBE7FEB51C46174606000D4656
:1052D00014D0002C12D000200A460190A22301A96C
:1052E0000094304601F09CFA002806D1206800287E
:1052F00006D00198A84210D10020FEBD0E20FEBDB0
:10530000094800903B4601AA2946304601F0FBFBC4
:105310000028F4D10199A942F1D00920FEBD000076
:105320005962000049630000B5630000FFB583B017
:1053300000200C9C1D4616460F460190002B23D0E2
:10534000002C21D0206800281BD0A3202870012029
:10535000019001AB294603A8226801F0ADFA0028AC
:1053600010D12548009001AB29463846226801F04B
:10537000B1FB002806D1019923680A46491C8B42DB
:1053800004D2092007B0F0BD0E20FBE7002E01D0AB
:10539000012300E00023AB5401912160F2E7FEB548
:1053A0001D46164607000C4620D0002D1ED00020BA
:1053B0000A460190A32301A90095384601F030FA6E
:1053C000002814D12868002803D00198A0420FD1EA
:1053D00010E00198801CA0420AD8002E06D0334667
:1053E00001AA2146384601F08AFAEEE70E20FEBDFA
:1053F0000920FEBD0020FEBD49630000FFB581B05D
:105400000020009001981D4614460F4600280CD03D
:10541000002D0AD0032F1ED30426002C07D02868A5
:10542000042806D20C2005B0F0BD0E20FBE71E605C
:1054300014E05320208004206080231D6A460198D8
:1054400001F05DFAA31D6A463946019801F057FA4A
:105450000098B84201D00920E5E72E600020E2E77D
:10546000FFB585B01D461446070030D0002D2ED064
:105470000020019002202E68286003AB01AA384664
:10548000069901F02AFA00281FD1002C08D02868BC
:10549000B04219D85120208068468089A080A01D84
:1054A00029680090711A029102AB01AA3846069948
:1054B00001F07FF8002808D12968029A891829602C
:1054C000019A06998A4200D0092009B0F0BD0E2049
:1054D000FBE7F8B50E4600211C46009100280BD0D2
:1054E000002C09D0022E17D30225002A06D02168ED
:1054F000022905D20C20F8BD0E20F8BD1D600EE07B
:105500005421118002215180131D6A46314601F059
:10551000F6F90098B04201D00920F8BD25600020BE
:10552000F8BDFFB581B00020009001981D461446DB
:105530000F4600280CD0002D0AD0032F1ED30326BF
:10554000002C07D02868032806D20C2005B0F0BD37
:105550000E20FBE71E6014E05220208003206080B4
:10556000231D6A46019801F0CAF9A31D6A4639460F
:10557000019801F0EDF90098B84201D00920E5E763
:105580002E600020E2E7FFB581B000200090019876
:105590001D4614460F4600280CD0002D0AD0032FBC
:1055A0001ED30326002C07D02868032806D20C201F
:1055B00005B0F0BD0E20FBE71E6014E055202080F2
:1055C00003206080231D6A46019801F098F9A31D0D
:1055D0006A463946019801F0BBF90098B84201D0FB
:1055E0000920E5E72E600020E2E7FFB585B01C4604
:1055F000154607002ED0002C2CD000200190022050
:105600002668206003AB01AA3846069901F065F9C7
:1056100000281DD1002D06D02068B04217D868465A
:105620008089A880A81D21680090711A029102ABA0
:1056300001AA3846069900F017FF002808D1216812
:10564000029A89182160019A06998A4200D009209D
:1056500009B0F0BD0E20FBE7F8B51F4615000E4659
:1056600009D0002F07D0002E07D0B168002904D13F
:10567000F168002901D00E20F8BD3968052940D312
:10568000A6212970691C00F07EF8401C002E01D074
:10569000012100E00021441C2954002E42D0396829
:1056A000E01D81422DD32919308800F06CF80419CF
:1056B000B0782855641C2919B08800F064F80419E2
:1056C000B068002831D03A68211D8A4219D3008879
:1056D00001214902884201D90720F8BD012028553F
:1056E000B068641C2919008800F04DF80419F068AE
:1056F000002815D0B0680188601C081839688842F5
:1057000001D90920F8BD01202855B068641C028821
:105710002819F16803F068FDB0680088041901E0F9
:105720002855641C00203C60F8BD00202855641CEE
:10573000F6E7FEB51F46144606000D4614D0002CB1
:1057400012D000200A460190A62301A900943046F9
:1057500001F066F8002806D12068002806D00198DC
:10576000A8420ED00920FEBD0E20FEBD08480090C4
:105770003B4601AA2946304601F0C5F90028F4D17C
:10578000EDE70020FEBD0870000A48700220704757
:10579000DB680000FFB583B00C9C1D00164607D0E7
:1057A000002C05D02268062A04D2092007B0F0BDDB
:1057B0000E20FBE700200090A120694608711746E3
:1057C0006B46294601A801F0A9F80028EED16B46E6
:1057D0003A46294603A801F06FF80028E6D16B4647
:1057E0003A46294604A801F067F80028DED1002EC9
:1057F00001D0012000E00020694608726B4629466E
:1058000002A8226801F08AF80028CFD1009921600F
:10581000CCE7FEB50746164600201D460C46009311
:1058200001900A46A12301A9384600F0F9FF00289B
:1058300006D12868002804D00198A04210D1002089
:10584000FEBD002E0ED00198801CA04208D8334621
:1058500001AA2146384601F040F80199A142EFD053
:105860000920FEBD0E20FEBD30B5039C002B0BD0E1
:10587000002C09D02568042D1BD3A0251D7058705D
:10588000002903D0012002E00E2030BD00209870D6
:105890000320002909D0206806280AD30D88DD706E
:1058A0002D0A1D718878587106202568411C8D428B
:1058B00001D2092030BD002A01D0012100E00021E1
:1058C0001954401C2060002030BDFFB583B017463E
:1058D00000201E460C46009301900A46A02301A911
:1058E000039800F09DFF050006D13068002805D020
:1058F0000198A04211D1002007B0F0BD002F0ED0BA
:105900000198801CA04208D83B4601AA2146039872
:1059100000F0F5FF0198A04203D00920ECE70E202B
:10592000EAE72846E8E730B5039C002B0DD0002CB1
:105930000BD02568042D1BD3AA251D705870000AB2
:105940009870002A03D0012002E00E2030BD002014
:10595000D8700420002A07D02068062808D31288AF
:105960001A71120A5A7106202568421C954201D20A
:10597000092030BD002900D001211954401C2060AD
:10598000002030BDFFB583B00C9F1C460D460600BD
:1059900036D0002F34D000200A460190AA2301A956
:1059A0000097304600F03CFF002827D138680028D7
:1059B00003D00198A84235D136E00198C01CA84216
:1059C00030D802AB01AA2946304600F098FF019971
:1059D000705C491C0191012805D0002CE9D0684673
:1059E00000892080E5E70598002809D0002C07D021
:1059F0006A4620881289904204D20C2007B0F0BD7C
:105A00000E20FBE78818A8420CD87118059803F0FF
:105A1000EBFB6846008920806846008901990818D8
:105A20000190C6E70920E9E70020E7E770B5049D8B
:105A30001446002B0DD0002D0BD02A68042A18D351
:105A4000A9221A705870000A9870002903D001200A
:105A500002E00E2070BD0020D8700420002912D072
:105A6000C001844201D9072070BD2A68A01D904260
:105A700001D9092070BD1C71220A5A71981D224655
:105A800003F0B2FBA01D2860002070BD10B51346C6
:105A9000A92200F0E4FE10BD70B5049C059D002C09
:105AA0001AD0002D18D02E68052E1DD3A5262670DD
:105AB0006070000AA070E170090A21712868002A4C
:105AC00010D0092810D3012060711188A171090A32
:105AD000E171002B02D002E00E2070BD0020207288
